{
  "contractName": "Voting",
  "abi": [
    {
      "anonymous": false,
      "inputs": [
        {
          "indexed": false,
          "internalType": "uint256",
          "name": "MaxProposal",
          "type": "uint256"
        }
      ],
      "name": "MaxProposals",
      "type": "event"
    },
    {
      "anonymous": false,
      "inputs": [
        {
          "indexed": false,
          "internalType": "uint256",
          "name": "MaxVoters",
          "type": "uint256"
        }
      ],
      "name": "MaxVoters",
      "type": "event"
    },
    {
      "anonymous": false,
      "inputs": [
        {
          "indexed": true,
          "internalType": "address",
          "name": "previousOwner",
          "type": "address"
        },
        {
          "indexed": true,
          "internalType": "address",
          "name": "newOwner",
          "type": "address"
        }
      ],
      "name": "OwnershipTransferred",
      "type": "event"
    },
    {
      "anonymous": false,
      "inputs": [
        {
          "indexed": false,
          "internalType": "uint256",
          "name": "proposalId",
          "type": "uint256"
        }
      ],
      "name": "ProposalRegistered",
      "type": "event"
    },
    {
      "anonymous": false,
      "inputs": [
        {
          "indexed": false,
          "internalType": "address",
          "name": "voter",
          "type": "address"
        },
        {
          "indexed": false,
          "internalType": "uint256",
          "name": "proposalId",
          "type": "uint256"
        }
      ],
      "name": "Voted",
      "type": "event"
    },
    {
      "anonymous": false,
      "inputs": [
        {
          "indexed": false,
          "internalType": "address",
          "name": "voterAddress",
          "type": "address"
        }
      ],
      "name": "VoterRegistered",
      "type": "event"
    },
    {
      "anonymous": false,
      "inputs": [
        {
          "indexed": false,
          "internalType": "enum Voting.WorkflowStatus",
          "name": "previousStatus",
          "type": "uint8"
        },
        {
          "indexed": false,
          "internalType": "enum Voting.WorkflowStatus",
          "name": "newStatus",
          "type": "uint8"
        }
      ],
      "name": "WorkflowStatusChange",
      "type": "event"
    },
    {
      "inputs": [],
      "name": "owner",
      "outputs": [
        {
          "internalType": "address",
          "name": "",
          "type": "address"
        }
      ],
      "stateMutability": "view",
      "type": "function",
      "constant": true
    },
    {
      "inputs": [
        {
          "internalType": "uint256",
          "name": "",
          "type": "uint256"
        }
      ],
      "name": "proposalsArray",
      "outputs": [
        {
          "internalType": "string",
          "name": "description",
          "type": "string"
        },
        {
          "internalType": "uint256",
          "name": "voteCount",
          "type": "uint256"
        }
      ],
      "stateMutability": "view",
      "type": "function",
      "constant": true
    },
    {
      "inputs": [],
      "name": "renounceOwnership",
      "outputs": [],
      "stateMutability": "nonpayable",
      "type": "function"
    },
    {
      "inputs": [
        {
          "internalType": "address",
          "name": "newOwner",
          "type": "address"
        }
      ],
      "name": "transferOwnership",
      "outputs": [],
      "stateMutability": "nonpayable",
      "type": "function"
    },
    {
      "inputs": [],
      "name": "winningProposalID",
      "outputs": [
        {
          "internalType": "uint256",
          "name": "",
          "type": "uint256"
        }
      ],
      "stateMutability": "view",
      "type": "function",
      "constant": true
    },
    {
      "inputs": [],
      "name": "workflowStatus",
      "outputs": [
        {
          "internalType": "enum Voting.WorkflowStatus",
          "name": "",
          "type": "uint8"
        }
      ],
      "stateMutability": "view",
      "type": "function",
      "constant": true
    },
    {
      "inputs": [
        {
          "internalType": "address",
          "name": "_addr",
          "type": "address"
        }
      ],
      "name": "getVoter",
      "outputs": [
        {
          "components": [
            {
              "internalType": "bool",
              "name": "isRegistered",
              "type": "bool"
            },
            {
              "internalType": "bool",
              "name": "hasVoted",
              "type": "bool"
            },
            {
              "internalType": "uint256",
              "name": "votedProposalId",
              "type": "uint256"
            }
          ],
          "internalType": "struct Voting.Voter",
          "name": "",
          "type": "tuple"
        }
      ],
      "stateMutability": "view",
      "type": "function",
      "constant": true
    },
    {
      "inputs": [
        {
          "internalType": "uint256",
          "name": "_id",
          "type": "uint256"
        }
      ],
      "name": "getOneProposal",
      "outputs": [
        {
          "components": [
            {
              "internalType": "string",
              "name": "description",
              "type": "string"
            },
            {
              "internalType": "uint256",
              "name": "voteCount",
              "type": "uint256"
            }
          ],
          "internalType": "struct Voting.Proposal",
          "name": "",
          "type": "tuple"
        }
      ],
      "stateMutability": "view",
      "type": "function",
      "constant": true
    },
    {
      "inputs": [],
      "name": "getWinner",
      "outputs": [
        {
          "components": [
            {
              "internalType": "string",
              "name": "description",
              "type": "string"
            },
            {
              "internalType": "uint256",
              "name": "voteCount",
              "type": "uint256"
            }
          ],
          "internalType": "struct Voting.Proposal[]",
          "name": "",
          "type": "tuple[]"
        }
      ],
      "stateMutability": "view",
      "type": "function",
      "constant": true
    },
    {
      "inputs": [],
      "name": "getNbVoters",
      "outputs": [
        {
          "internalType": "uint256",
          "name": "",
          "type": "uint256"
        }
      ],
      "stateMutability": "view",
      "type": "function",
      "constant": true
    },
    {
      "inputs": [],
      "name": "getNbProposals",
      "outputs": [
        {
          "internalType": "uint256",
          "name": "",
          "type": "uint256"
        }
      ],
      "stateMutability": "view",
      "type": "function",
      "constant": true
    },
    {
      "inputs": [],
      "name": "getTotalVotes",
      "outputs": [
        {
          "internalType": "uint256",
          "name": "",
          "type": "uint256"
        }
      ],
      "stateMutability": "view",
      "type": "function",
      "constant": true
    },
    {
      "inputs": [
        {
          "internalType": "uint256",
          "name": "_nbVotersMax",
          "type": "uint256"
        }
      ],
      "name": "defineMaxVoters",
      "outputs": [],
      "stateMutability": "nonpayable",
      "type": "function"
    },
    {
      "inputs": [
        {
          "internalType": "address",
          "name": "_addr",
          "type": "address"
        }
      ],
      "name": "addVoter",
      "outputs": [],
      "stateMutability": "nonpayable",
      "type": "function"
    },
    {
      "inputs": [
        {
          "internalType": "uint256",
          "name": "_nbProposalsMax",
          "type": "uint256"
        }
      ],
      "name": "defineMaxProposals",
      "outputs": [],
      "stateMutability": "nonpayable",
      "type": "function"
    },
    {
      "inputs": [
        {
          "internalType": "string",
          "name": "_desc",
          "type": "string"
        }
      ],
      "name": "addProposal",
      "outputs": [],
      "stateMutability": "nonpayable",
      "type": "function"
    },
    {
      "inputs": [
        {
          "internalType": "uint256",
          "name": "_id",
          "type": "uint256"
        }
      ],
      "name": "setVote",
      "outputs": [],
      "stateMutability": "nonpayable",
      "type": "function"
    },
    {
      "inputs": [],
      "name": "startProposalsRegistering",
      "outputs": [],
      "stateMutability": "nonpayable",
      "type": "function"
    },
    {
      "inputs": [],
      "name": "endProposalsRegistering",
      "outputs": [],
      "stateMutability": "nonpayable",
      "type": "function"
    },
    {
      "inputs": [],
      "name": "startVotingSession",
      "outputs": [],
      "stateMutability": "nonpayable",
      "type": "function"
    },
    {
      "inputs": [],
      "name": "endVotingSession",
      "outputs": [],
      "stateMutability": "nonpayable",
      "type": "function"
    },
    {
      "inputs": [],
      "name": "tallyVotesDraw",
      "outputs": [],
      "stateMutability": "nonpayable",
      "type": "function"
    }
  ],
  "bytecode": "0x608060405234801561001057600080fd5b5061001a3361001f565b61006f565b600080546001600160a01b038381166001600160a01b0319831681178455604051919092169283917f8be0079c531659141344cd1fd0a4f28419497f9722a3daafe3b4186f6b6457e09190a35050565b611e7d8061007e6000396000f3fe608060405234801561001057600080fd5b50600436106101425760003560e01c8063a2788cce116100b8578063c88af42f1161007c578063c88af42f1461024f578063d4f50f9814610257578063ee74c67814610290578063f2fde38b14610298578063f4ab9adf146102ab578063f86c6779146102be57600080fd5b8063a2788cce1461020e578063a6d428701461022e578063a7bfab1614610236578063bdc014311461023e578063c7038a4e1461024757600080fd5b8063715018a61161010a578063715018a6146101a15780638da5cb5b146101a95780638e7ea5b2146101c45780638f4d818b146101d95780639a0e7d66146101ec578063a1edffa2146101f457600080fd5b8063230796ae146101475780632fdae3c51461015c5780633beee92e1461016f5780635e870865146101775780636ea212ca1461018a575b600080fd5b61015a61015536600461196d565b6102df565b005b61015a61016a36600461199c565b6104a5565b61015a610734565b61015a61018536600461196d565b6109ab565b6008545b6040519081526020015b60405180910390f35b61015a610b61565b6000546040516001600160a01b039091168152602001610198565b6101cc610b97565b6040516101989190611ac3565b61015a6101e736600461196d565b610cf8565b61018e610eb4565b6004546102019060ff1681565b6040516101989190611b5d565b61022161021c36600461196d565b610ef2565b6040516101989190611b71565b60065461018e565b61015a611057565b61018e60035481565b61015a61113f565b61015a61125f565b61026a610265366004611b8b565b61134d565b604080518251151581526020808401511515908201529181015190820152606001610198565b61015a6113e2565b61015a6102a6366004611b8b565b6114b6565b61015a6102b9366004611b8b565b611551565b6102d16102cc36600461196d565b61172f565b604051610198929190611bb4565b336000908152600b602052604090205460ff166103175760405162461bcd60e51b815260040161030e90611bd6565b60405180910390fd5b600360045460ff16600581111561033057610330611b25565b1461034d5760405162461bcd60e51b815260040161030e90611c02565b336000908152600b6020526040902054610100900460ff1615156001036103af5760405162461bcd60e51b8152602060048201526016602482015275165bdd481a185d9948185b1c9958591e481d9bdd195960521b604482015260640161030e565b6005548111156103f65760405162461bcd60e51b8152602060048201526012602482015271141c9bdc1bdcd85b081b9bdd08199bdd5b9960721b604482015260640161030e565b336000908152600b6020526040902060018101829055805461ff001916610100179055600580548290811061042d5761042d611c43565b60009182526020822060016002909202010180549161044b83611c6f565b91905055506001600a60008282546104639190611c88565b909155505060408051338152602081018390527f4d99b957a2bc29a30ebd96a7be8e68fe50a3c701db28a91436490b7d53870ca491015b60405180910390a150565b336000908152600b602052604090205460ff166104d45760405162461bcd60e51b815260040161030e90611bd6565b600160045460ff1660058111156104ed576104ed611b25565b1461050a5760405162461bcd60e51b815260040161030e90611ca0565b6007546000036105685760405162461bcd60e51b8152602060048201526024808201527f706c6561736520736574206669727374206e62206d6178206f662070726f706f60448201526373616c7360e01b606482015260840161030e565b60405160200161058390602080825260009082015260400190565b60405160208183030381529060405280519060200120816040516020016105aa9190611ce6565b60405160208183030381529060405280519060200120036106195760405162461bcd60e51b815260206004820152602360248201527f566f7573206e6520706f7576657a20706173206e65207269656e2070726f706f60448201526239b2b960e91b606482015260840161030e565b6007546006541061066c5760405162461bcd60e51b815260206004820152601b60248201527f4e62206d6178206f662070726f706f73616c7320726561636865640000000000604482015260640161030e565b60408051808201909152600060208083018290528383526005805460018101825592528251805184936002027f036b6384b5eca791c62761152d0c79bb0604c104a5fb6f4eb0703f3154bb3db001926106c992849291019061183b565b506020820151816001015550506001600660008282546106e99190611c88565b90915550506005547f92e393e9b54e2f801d3ea4beb0c5e71a21cc34a5d34b77d0fb8a3aa1650dc18f9061071f90600190611cf9565b60405190815260200160405180910390a15050565b6000546001600160a01b0316331461075e5760405162461bcd60e51b815260040161030e90611d10565b6004805460ff16600581111561077657610776611b25565b146107935760405162461bcd60e51b815260040161030e90611d45565b6004805460ff1660058111156107ab576107ab611b25565b146107c85760405162461bcd60e51b815260040161030e90611d45565b60006107d26118bf565b6000805b6005548110156108ab5783600582815481106107f4576107f4611c43565b90600052602060002090600202016001015403610831578083836005811061081e5761081e611c43565b60200201528161082d81611c6f565b9250505b836005828154811061084557610845611c43565b9060005260206000209060020201600101541115610899576108656118bf565b81815260058054919450908290811061088057610880611c43565b9060005260206000209060020201600101549350600191505b806108a381611c6f565b9150506107d6565b5060005b818110156109705760018382600581106108cb576108cb611c43565b60209081029190910151825460018101845560009384529190922001556002600584838281106108fd576108fd611c43565b60200201518154811061091257610912611c43565b6000918252602080832084546001810186559484529220600291820290920180549093909102909101908190839061094990611d8f565b6109549291906118dd565b506001918201549101558061096881611c6f565b9150506108af565b506004805460ff191660059081178255604051600080516020611e288339815191529261099e929091611dc9565b60405180910390a1505050565b6000546001600160a01b031633146109d55760405162461bcd60e51b815260040161030e90611d10565b600060045460ff1660058111156109ee576109ee611b25565b14610a0b5760405162461bcd60e51b815260040161030e90611de4565b60095415610a5b5760405162461bcd60e51b815260206004820152601b60248201527f6e62206f6620766f746572206d617820616c7265616479207365740000000000604482015260640161030e565b6002811015610ac15760405162461bcd60e51b815260206004820152602c60248201527f4e62206d6178206f6620766f74657273206d757374206265207375706572696f60448201526b3917b2b8bab0b6103a37901960a11b606482015260840161030e565b6064811115610b2c5760405162461bcd60e51b815260206004820152603160248201527f50726f6772616d6d20636f64652069732073657420746f20616363657074206d6044820152706178696d756d2031303020766f7465727360781b606482015260840161030e565b60098190556040518181527fafd8f919e8a961bbc93535fe5d1550fda9f0cef3fc61ffe76634c4171354984e9060200161049a565b6000546001600160a01b03163314610b8b5760405162461bcd60e51b815260040161030e90611d10565b610b9560006117eb565b565b6060600560045460ff166005811115610bb257610bb2611b25565b14610bff5760405162461bcd60e51b815260206004820152601960248201527f566f74657320617265206e6f742074616c6c6965642079657400000000000000604482015260640161030e565b6002805480602002602001604051908101604052809291908181526020016000905b82821015610cef5783829060005260206000209060020201604051806040016040529081600082018054610c5490611d8f565b80601f0160208091040260200160405190810160405280929190818152602001828054610c8090611d8f565b8015610ccd5780601f10610ca257610100808354040283529160200191610ccd565b820191906000526020600020905b815481529060010190602001808311610cb057829003601f168201915b5050505050815260200160018201548152505081526020019060010190610c21565b50505050905090565b6000546001600160a01b03163314610d225760405162461bcd60e51b815260040161030e90611d10565b600160045460ff166005811115610d3b57610d3b611b25565b14610d585760405162461bcd60e51b815260040161030e90611ca0565b60075415610da85760405162461bcd60e51b815260206004820152601e60248201527f6e62206f662070726f706f73616c206d617820616c7265616479207365740000604482015260640161030e565b6002811015610e115760405162461bcd60e51b815260206004820152602f60248201527f4e62206d6178206f662070726f706f73616c73206d757374206265207375706560448201526e3934b7b917b2b8bab0b6103a37901960891b606482015260840161030e565b6064811115610e7f5760405162461bcd60e51b815260206004820152603460248201527f50726f6772616d6d20636f64652069732073657420746f20616363657074206d6044820152736178696d756d203130302070726f706f73616c7360601b606482015260840161030e565b60078190556040518181527fef2d243beda50d8a4b8cd5253e402663680e4c513b4cbd3fd60f83181fe46c709060200161049a565b60006004805460ff166005811115610ece57610ece611b25565b14610eeb5760405162461bcd60e51b815260040161030e90611d45565b50600a5490565b604080518082019091526060815260006020820152336000908152600b602052604090205460ff16610f365760405162461bcd60e51b815260040161030e90611bd6565b600654821115610f885760405162461bcd60e51b815260206004820181905260248201527f4e6f742070726f706f73616c206c697374656420776974682074686973206964604482015260640161030e565b60058281548110610f9b57610f9b611c43565b9060005260206000209060020201604051806040016040529081600082018054610fc490611d8f565b80601f0160208091040260200160405190810160405280929190818152602001828054610ff090611d8f565b801561103d5780601f106110125761010080835404028352916020019161103d565b820191906000526020600020905b81548152906001019060200180831161102057829003601f168201915b505050505081526020016001820154815250509050919050565b6000546001600160a01b031633146110815760405162461bcd60e51b815260040161030e90611d10565b600360045460ff16600581111561109a5761109a611b25565b146110b75760405162461bcd60e51b815260040161030e90611c02565b6000600a54116111095760405162461bcd60e51b815260206004820152601860248201527f596f75206e656564206174206c65617374203120766f74650000000000000000604482015260640161030e565b6004805460ff191681178155604051600080516020611e28833981519152916111359160039190611dc9565b60405180910390a1565b6000546001600160a01b031633146111695760405162461bcd60e51b815260040161030e90611d10565b6009546000036111ce5760405162461bcd60e51b815260206004820152602a60248201527f596f75206e65656420666972737420746f2073657420746865206e62206d6178604482015269206f6620766f7465727360b01b606482015260840161030e565b60085460000361122f5760405162461bcd60e51b815260206004820152602660248201527f596f75206e65656420666972737420746f20736574206174206c656173742031604482015265103b37ba32b960d11b606482015260840161030e565b6004805460ff19166001908117909155604051600080516020611e28833981519152916111359160009190611dc9565b6000546001600160a01b031633146112895760405162461bcd60e51b815260040161030e90611d10565b600160045460ff1660058111156112a2576112a2611b25565b146112bf5760405162461bcd60e51b815260040161030e90611ca0565b60016006541161131d5760405162461bcd60e51b815260206004820152602360248201527f596f75206e656564206174206c6561737420746f2061646420322070726f706f6044820152621cd85b60ea1b606482015260840161030e565b6004805460ff19166002908117909155604051600080516020611e28833981519152916111359160019190611dc9565b6040805160608101825260008082526020808301829052828401829052338252600b9052919091205460ff166113955760405162461bcd60e51b815260040161030e90611bd6565b506001600160a01b03166000908152600b60209081526040918290208251606081018452815460ff8082161515835261010090910416151592810192909252600101549181019190915290565b6000546001600160a01b0316331461140c5760405162461bcd60e51b815260040161030e90611d10565b600260045460ff16600581111561142557611425611b25565b146114865760405162461bcd60e51b815260206004820152602b60248201527f5265676973746572696e672070726f706f73616c73207068617365206973206e60448201526a1bdd08199a5b9a5cda195960aa1b606482015260840161030e565b6004805460ff19166003908117909155604051600080516020611e28833981519152916111359160029190611dc9565b6000546001600160a01b031633146114e05760405162461bcd60e51b815260040161030e90611d10565b6001600160a01b0381166115455760405162461bcd60e51b815260206004820152602660248201527f4f776e61626c653a206e6577206f776e657220697320746865207a65726f206160448201526564647265737360d01b606482015260840161030e565b61154e816117eb565b50565b6000546001600160a01b0316331461157b5760405162461bcd60e51b815260040161030e90611d10565b600060045460ff16600581111561159457611594611b25565b146115b15760405162461bcd60e51b815260040161030e90611de4565b6009546000036116035760405162461bcd60e51b815260206004820181905260248201527f706c6561736520736574206669727374206e62206d6178206f6620766f746572604482015260640161030e565b6001600160a01b0381166000908152600b602052604090205460ff1615156001036116655760405162461bcd60e51b8152602060048201526012602482015271105b1c9958591e481c9959da5cdd195c995960721b604482015260640161030e565b600954600854106116b85760405162461bcd60e51b815260206004820152601860248201527f4e62206d6178206f6620766f7465727320726561636865640000000000000000604482015260640161030e565b6001600160a01b0381166000908152600b60205260408120805460ff1916600190811790915560088054919290916116f1908490611c88565b90915550506040516001600160a01b03821681527fb6be2187d059cc2a55fe29e0e503b566e1e0f8c8780096e185429350acffd3dd9060200161049a565b6005818154811061173f57600080fd5b906000526020600020906002020160009150905080600001805461176290611d8f565b80601f016020809104026020016040519081016040528092919081815260200182805461178e90611d8f565b80156117db5780601f106117b0576101008083540402835291602001916117db565b820191906000526020600020905b8154815290600101906020018083116117be57829003601f168201915b5050505050908060010154905082565b600080546001600160a01b038381166001600160a01b0319831681178455604051919092169283917f8be0079c531659141344cd1fd0a4f28419497f9722a3daafe3b4186f6b6457e09190a35050565b82805461184790611d8f565b90600052602060002090601f01602090048101928261186957600085556118af565b82601f1061188257805160ff19168380011785556118af565b828001600101855582156118af579182015b828111156118af578251825591602001919060010190611894565b506118bb929150611958565b5090565b6040518060a001604052806005906020820280368337509192915050565b8280546118e990611d8f565b90600052602060002090601f01602090048101928261190b57600085556118af565b82601f1061191c57805485556118af565b828001600101855582156118af57600052602060002091601f016020900482015b828111156118af57825482559160010191906001019061193d565b5b808211156118bb5760008155600101611959565b60006020828403121561197f57600080fd5b5035919050565b634e487b7160e01b600052604160045260246000fd5b6000602082840312156119ae57600080fd5b813567ffffffffffffffff808211156119c657600080fd5b818401915084601f8301126119da57600080fd5b8135818111156119ec576119ec611986565b604051601f8201601f19908116603f01168101908382118183101715611a1457611a14611986565b81604052828152876020848701011115611a2d57600080fd5b826020860160208301376000928101602001929092525095945050505050565b6000815180845260005b81811015611a7357602081850181015186830182015201611a57565b81811115611a85576000602083870101525b50601f01601f19169290920160200192915050565b6000815160408452611aaf6040850182611a4d565b602093840151949093019390935250919050565b6000602080830181845280855180835260408601915060408160051b870101925083870160005b82811015611b1857603f19888603018452611b06858351611a9a565b94509285019290850190600101611aea565b5092979650505050505050565b634e487b7160e01b600052602160045260246000fd5b60068110611b5957634e487b7160e01b600052602160045260246000fd5b9052565b60208101611b6b8284611b3b565b92915050565b602081526000611b846020830184611a9a565b9392505050565b600060208284031215611b9d57600080fd5b81356001600160a01b0381168114611b8457600080fd5b604081526000611bc76040830185611a4d565b90508260208301529392505050565b6020808252601290820152712cb7ba93b932903737ba1030903b37ba32b960711b604082015260600190565b60208082526021908201527f566f74696e672073657373696f6e20686176656e7420737461727465642079656040820152601d60fa1b606082015260800190565b634e487b7160e01b600052603260045260246000fd5b634e487b7160e01b600052601160045260246000fd5b600060018201611c8157611c81611c59565b5060010190565b60008219821115611c9b57611c9b611c59565b500190565b60208082526026908201527f50726f706f73616c7320726567697374726174696f6e206973206e6f74206f70604082015265195b881e595d60d21b606082015260800190565b602081526000611b846020830184611a4d565b600082821015611d0b57611d0b611c59565b500390565b6020808252818101527f4f776e61626c653a2063616c6c6572206973206e6f7420746865206f776e6572604082015260600190565b6020808252602a908201527f43757272656e7420737461747573206973206e6f7420766f74696e67207365736040820152691cda5bdb88195b99195960b21b606082015260800190565b600181811c90821680611da357607f821691505b602082108103611dc357634e487b7160e01b600052602260045260246000fd5b50919050565b60408101611dd78285611b3b565b611b846020830184611b3b565b60208082526023908201527f566f7465727320726567697374726174696f6e206973206e6f74206f70656e206040820152621e595d60ea1b60608201526080019056fe0a97a4ee45751e2abf3e4fc8946939630b11b371ea8ae39ccdc3056e98f5cc3fa2646970667358221220c5068df4210a5842548ba4776d3b7d0b2b3d4016566f6147238a794b8e25f2c964736f6c634300080d0033",
  "immutableReferences": {},
  "source": "// SPDX-License-Identifier: MIT\n\npragma solidity 0.8.13 ;\nimport \"@openzeppelin/contracts/access/Ownable.sol\";\n\n\ncontract Voting is Ownable {\n\n// ::::::::::::: VARS ::::::::::::: //\n    // arrays for draw, uint for single\n    uint[] winningProposalsID;\n    Proposal[] winningProposals;\n    uint public winningProposalID;\n    \n    struct Voter {\n        bool isRegistered;\n        bool hasVoted;\n        uint votedProposalId;\n    }\n\n    struct Proposal {\n        string description;\n        uint voteCount;\n    }\n\n    enum  WorkflowStatus {\n        RegisteringVoters,\n        ProposalsRegistrationStarted,\n        ProposalsRegistrationEnded,\n        VotingSessionStarted,\n        VotingSessionEnded,\n        VotesTallied\n    }\n\n    WorkflowStatus public workflowStatus;\n    Proposal[] public proposalsArray;\n    uint private nbProposals;\n    uint private nbProposalsMax;\n    uint private nbVoters;\n    uint private nbVotersMax;\n    uint private nbVotes;\n    mapping (address => Voter) private voters;\n//\n\n// ::::::::::::: EVENTS ::::::::::::: //\n\n    event VoterRegistered(address voterAddress); \n    event WorkflowStatusChange(WorkflowStatus previousStatus, WorkflowStatus newStatus);\n    event ProposalRegistered(uint proposalId);\n    event Voted (address voter, uint proposalId);\n    event MaxProposals(uint MaxProposal);\n    event MaxVoters(uint MaxVoters);\n\n//\n// ::::::::::::: MODIFIERS ::::::::::::: //\n\n\n    modifier onlyVoters() {\n        require(voters[msg.sender].isRegistered, 'You\\'re not a voter');\n        _;\n    }\n    modifier onlyRegisteringVotersStatus(){\n        require(workflowStatus == WorkflowStatus.RegisteringVoters, 'Voters registration is not open yet');\n        _;\n    }\n\n    modifier onlyProposalsRegistrationStartedStatus(){\n        require(workflowStatus == WorkflowStatus.ProposalsRegistrationStarted, 'Proposals registration is not open yet');\n        _;\n    }\n    modifier onlyVotingSessionStartedStatus(){\n        require(workflowStatus == WorkflowStatus.VotingSessionStarted, 'Voting session havent started yet');\n        _;\n    }\n    modifier onlyVotingSessionEndedStatus(){\n       require(workflowStatus == WorkflowStatus.VotingSessionEnded, 'Current status is not voting session ended');\n       _;\n    }\n//    \n\n// ::::::::::::: GETTERS ::::::::::::: //\n\n    function getVoter(address _addr) external onlyVoters view returns (Voter memory) {\n        return voters[_addr];\n    }\n    \n    function getOneProposal(uint _id) external onlyVoters view returns (Proposal memory) {\n        require(_id<=nbProposals,'Not proposal listed with this id');\n        return proposalsArray[_id];\n    }\n\n    function getWinner() external view returns (Proposal[] memory) {\n        require(workflowStatus == WorkflowStatus.VotesTallied, 'Votes are not tallied yet');\n        return winningProposals;\n    }\n\n    function getNbVoters()public view returns (uint){\n        return nbVoters;\n    }\n\n    function getNbProposals()public view returns (uint){\n        return nbProposals;\n    }\n    function getTotalVotes()public view onlyVotingSessionEndedStatus returns (uint){\n        return nbVotes;\n    }\n//\n\n// ::::::::::::: REGISTRATION ::::::::::::: // \n    function defineMaxVoters(uint _nbVotersMax) external onlyOwner onlyRegisteringVotersStatus{\n        require(nbVotersMax==0,'nb of voter max already set');\n        require(_nbVotersMax>=2,'Nb max of voters must be superior/equal to 2');\n        require(_nbVotersMax<=100,'Programm code is set to accept maximum 100 voters');\n        nbVotersMax=_nbVotersMax;\n        emit MaxVoters(nbVotersMax);\n    }\n\n    function addVoter(address _addr) public onlyOwner onlyRegisteringVotersStatus{\n        require(nbVotersMax!=0,'please set first nb max of voter');\n        require(voters[_addr].isRegistered != true, 'Already registered');\n        require(nbVoters<nbVotersMax,'Nb max of voters reached');\n        voters[_addr].isRegistered = true;\n        nbVoters+=1;\n        emit VoterRegistered(_addr);\n    }\n//\n\n// ::::::::::::: PROPOSAL ::::::::::::: // \n    function defineMaxProposals(uint _nbProposalsMax) external onlyOwner onlyProposalsRegistrationStartedStatus{\n        require(nbProposalsMax==0,'nb of proposal max already set');\n        require(_nbProposalsMax>=2,'Nb max of proposals must be superior/equal to 2');\n        require(_nbProposalsMax<=100,'Programm code is set to accept maximum 100 proposals');\n        nbProposalsMax=_nbProposalsMax;\n\n        emit MaxProposals(nbProposalsMax);\n    }\n\n    function addProposal(string memory _desc) external onlyVoters onlyProposalsRegistrationStartedStatus{\n        require(nbProposalsMax!=0,'please set first nb max of proposals');\n        require(keccak256(abi.encode(_desc)) != keccak256(abi.encode(\"\")), 'Vous ne pouvez pas ne rien proposer'); // facultatif\n        require(nbProposals<nbProposalsMax,'Nb max of proposals reached');\n\n\n        // voir que desc est different des autres\n\n        Proposal memory proposal;\n        proposal.description = _desc;\n        proposalsArray.push(proposal);\n        nbProposals+=1;\n        emit ProposalRegistered(proposalsArray.length-1);\n    }\n//\n\n// ::::::::::::: VOTE ::::::::::::: //\n\n    function setVote( uint _id) external onlyVoters onlyVotingSessionStartedStatus{\n        require(voters[msg.sender].hasVoted != true, 'You have already voted');\n        require(_id <= proposalsArray.length, 'Proposal not found'); // pas oblig, et pas besoin du >0 car uint\n\n        voters[msg.sender].votedProposalId = _id;\n        voters[msg.sender].hasVoted = true;\n        proposalsArray[_id].voteCount++;\n        nbVotes+=1;\n        emit Voted(msg.sender, _id);\n    }\n\n//\n\n// ::::::::::::: STATE ::::::::::::: //\n\n    function startProposalsRegistering() external onlyOwner {\n        require(nbVotersMax!=0,'You need first to set the nb max of voters');\n        require(nbVoters!=0,'You need first to set at least 1 voter');\n        workflowStatus = WorkflowStatus.ProposalsRegistrationStarted;\n        emit WorkflowStatusChange(WorkflowStatus.RegisteringVoters, WorkflowStatus.ProposalsRegistrationStarted);\n    }\n\n    function endProposalsRegistering() external onlyOwner onlyProposalsRegistrationStartedStatus{\n        require(nbProposals>1,'You need at least to add 2 proposal');\n        workflowStatus = WorkflowStatus.ProposalsRegistrationEnded;\n        emit WorkflowStatusChange(WorkflowStatus.ProposalsRegistrationStarted, WorkflowStatus.ProposalsRegistrationEnded);\n    }\n\n    function startVotingSession() external onlyOwner {\n        require(workflowStatus == WorkflowStatus.ProposalsRegistrationEnded, 'Registering proposals phase is not finished');\n        workflowStatus = WorkflowStatus.VotingSessionStarted;\n        emit WorkflowStatusChange(WorkflowStatus.ProposalsRegistrationEnded, WorkflowStatus.VotingSessionStarted);\n    }\n\n    function endVotingSession() external onlyOwner {\n        require(workflowStatus == WorkflowStatus.VotingSessionStarted, 'Voting session havent started yet');\n        require(nbVotes>0,'You need at least 1 vote');\n        workflowStatus = WorkflowStatus.VotingSessionEnded;\n        emit WorkflowStatusChange(WorkflowStatus.VotingSessionStarted, WorkflowStatus.VotingSessionEnded);\n    }\n\n    function tallyVotesDraw() external onlyOwner onlyVotingSessionEndedStatus{\n       require(workflowStatus == WorkflowStatus.VotingSessionEnded, 'Current status is not voting session ended');\n        uint highestCount;\n        uint[5]memory winners; // egalite entre 5 personnes max\n        uint nbWinners;\n        for (uint i = 0; i < proposalsArray.length; i++) {\n            if (proposalsArray[i].voteCount == highestCount) {\n                winners[nbWinners]=i;\n                nbWinners++;\n            }\n            if (proposalsArray[i].voteCount > highestCount) {\n                delete winners;\n                winners[0]= i;\n                highestCount = proposalsArray[i].voteCount;\n                nbWinners=1;\n            }\n        }\n        for(uint j=0;j<nbWinners;j++){\n            winningProposalsID.push(winners[j]);\n            winningProposals.push(proposalsArray[winners[j]]);\n        }\n        workflowStatus = WorkflowStatus.VotesTallied;\n        emit WorkflowStatusChange(WorkflowStatus.VotingSessionEnded, WorkflowStatus.VotesTallied);\n    }\n//\n}",
  "sourcePath": "/home/victor/AlyraTests/ReactProject-3-Daap-Voting/contracts/Voting.sol",
  "compiler": {
    "name": "solc",
    "version": "0.8.13+commit.abaa5c0e.Emscripten.clang"
  },
  "schemaVersion": "3.4.6",
  "updatedAt": "2022-04-22T01:55:16.789Z",
  "networkType": "ethereum",
  "devdoc": {
    "kind": "dev",
    "methods": {
      "owner()": {
        "details": "Returns the address of the current owner."
      },
      "renounceOwnership()": {
        "details": "Leaves the contract without owner. It will not be possible to call `onlyOwner` functions anymore. Can only be called by the current owner. NOTE: Renouncing ownership will leave the contract without an owner, thereby removing any functionality that is only available to the owner."
      },
      "transferOwnership(address)": {
        "details": "Transfers ownership of the contract to a new account (`newOwner`). Can only be called by the current owner."
      }
    },
    "version": 1
  },
  "userdoc": {
    "kind": "user",
    "methods": {},
    "version": 1
  }
}